{
  "_format": "hh-sol-artifact-1",
  "contractName": "DeadMansSwitch",
  "sourceName": "contracts/DeadMansSwitch.sol",
  "abi": [
    {
      "inputs": [],
      "stateMutability": "nonpayable",
      "type": "constructor"
    },
    {
      "inputs": [],
      "name": "Balance",
      "outputs": [
        {
          "internalType": "uint256",
          "name": "",
          "type": "uint256"
        }
      ],
      "stateMutability": "view",
      "type": "function"
    },
    {
      "inputs": [],
      "name": "blockTime",
      "outputs": [
        {
          "internalType": "uint256",
          "name": "",
          "type": "uint256"
        }
      ],
      "stateMutability": "view",
      "type": "function"
    },
    {
      "inputs": [],
      "name": "mansDead",
      "outputs": [],
      "stateMutability": "nonpayable",
      "type": "function"
    },
    {
      "inputs": [],
      "name": "ownAddress",
      "outputs": [
        {
          "internalType": "address",
          "name": "",
          "type": "address"
        }
      ],
      "stateMutability": "view",
      "type": "function"
    },
    {
      "inputs": [],
      "name": "still_alive",
      "outputs": [],
      "stateMutability": "nonpayable",
      "type": "function"
    },
    {
      "inputs": [
        {
          "internalType": "uint256",
          "name": "amount",
          "type": "uint256"
        }
      ],
      "name": "transEthers",
      "outputs": [],
      "stateMutability": "nonpayable",
      "type": "function"
    }
  ],
  "bytecode": "0x6080604052732070c6447d7dba51c94c40e1e21fb1f1f79bd6f2600160006101000a81548173ffffffffffffffffffffffffffffffffffffffff021916908373ffffffffffffffffffffffffffffffffffffffff16021790555034801561006557600080fd5b5033600160006101000a81548173ffffffffffffffffffffffffffffffffffffffff021916908373ffffffffffffffffffffffffffffffffffffffff160217905550436000819055506104b9806100bd6000396000f3fe608060405234801561001057600080fd5b50600436106100625760003560e01c80630ef67887146100675780633d58225a14610085578063407166451461008f57806348b1516614610099578063701456bc146100b75780637d0bf8aa146100d5575b600080fd5b61006f6100f1565b60405161007c91906103ad565b60405180910390f35b61008d6100f7565b005b610097610175565b005b6100a1610200565b6040516100ae91906103ad565b60405180910390f35b6100bf610206565b6040516100cc9190610392565b60405180910390f35b6100ef60048036038101906100ea9190610347565b61022c565b005b60025481565b600160009054906101000a900473ffffffffffffffffffffffffffffffffffffffff1673ffffffffffffffffffffffffffffffffffffffff163373ffffffffffffffffffffffffffffffffffffffff161461015157600080fd5b600a6000544361016191906103c8565b111561016c57600080fd5b43600081905550565b600a6000544361018591906103c8565b1161018f57600080fd5b6000479050600160009054906101000a900473ffffffffffffffffffffffffffffffffffffffff1673ffffffffffffffffffffffffffffffffffffffff166108fc829081150290604051600060405180830381858888f193505050501580156101fc573d6000803e3d6000fd5b5050565b60005481565b600160009054906101000a900473ffffffffffffffffffffffffffffffffffffffff1681565b600160009054906101000a900473ffffffffffffffffffffffffffffffffffffffff1673ffffffffffffffffffffffffffffffffffffffff163373ffffffffffffffffffffffffffffffffffffffff161461028657600080fd5b80600254101561029557600080fd5b6102aa8160025461031c90919063ffffffff16565b600281905550600160009054906101000a900473ffffffffffffffffffffffffffffffffffffffff1673ffffffffffffffffffffffffffffffffffffffff166108fc829081150290604051600060405180830381858888f19350505050158015610318573d6000803e3d6000fd5b5050565b6000818361032a91906103c8565b905092915050565b6000813590506103418161046c565b92915050565b60006020828403121561035d5761035c610467565b5b600061036b84828501610332565b91505092915050565b61037d816103fc565b82525050565b61038c8161042e565b82525050565b60006020820190506103a76000830184610374565b92915050565b60006020820190506103c26000830184610383565b92915050565b60006103d38261042e565b91506103de8361042e565b9250828210156103f1576103f0610438565b5b828203905092915050565b60006104078261040e565b9050919050565b600073ffffffffffffffffffffffffffffffffffffffff82169050919050565b6000819050919050565b7f4e487b7100000000000000000000000000000000000000000000000000000000600052601160045260246000fd5b600080fd5b6104758161042e565b811461048057600080fd5b5056fea264697066735822122056c8b07e6d3683794817fcfd4e5528c5a5bc5c22339ad2ba4ddc13bdc04a52ec64736f6c63430008070033",
  "linkReferences": {},
  "deployedLinkReferences": {}
}